:100000000C9463000C9439020C9480000C948000D2
:100010000C9480000C9480000C9480000C94800060
:100020000C9480000C9480000C9480000C94800050
:100030000C9480000C9480000C9480000C94800040
:100040000C9480000C9480000C9480000C94800030
:100050000C9480000C9480000C9480000C94800020
:100060000C9480000C9480000902120001010080B1
:100070003209040000000000000012011001FF001E
:100080000008C016DC050001010200011C03490044
:1000900044002000350038003100300035003000C9
:1000A00034003300360031001A036300700065002D
:1000B0002E006B0075002E00610063002E0074009E
:1000C00068000403090411241FBECFEFD4E0DEBF93
:1000D000CDBF11E0A0E0B1E0E4ECF6E002C0059095
:1000E0000D92A230B107D9F721E0A2E0B1E001C042
:1000F0001D92A633B207E1F70E944D030C946003F2
:100100000C9400001F93CF93DF93EC011981111120
:1001100005C06A818C810E94F4004EC0123081F4C7
:1001200086B182FB882780F991E0892780930A01B4
:100130008AE091E090931B0180931A0111E03CC08A
:10014000133069F40E9424019093090180930801FF
:1001500028E031E030931B0120931A012DC01130AB
:1001600019F48A810E9405018981843049F40E9432
:100170002701909307018093060186E091E015C066
:10018000853049F40E942A0190930501809304016F
:1001900084E091E00AC0863071F40E942D019093B2
:1001A00003018093020182E091E090931B01809310
:1001B0001A0112E001C010E0812FDF91CF911F9151
:1001C000089587B1876087B988B1887F88B93A98E0
:1001D000429A3B98439A3C9888B18F6E88B93D9873
:1001E00088B18F6D88B9089598B121E030E0082E6C
:1001F00001C0220F0A94EAF7613019F4922B98B9E2
:1002000008952095292328B9089528B1982F986F2B
:10021000922398B998B18770892B88B908958F7007
:10022000806480937C0087EC80937A0080917A00D0
:1002300086FDFCCF209178008091790090E0982F86
:100240008827820F911D089580E00C940F0183E0B0
:100250000C940F0184E00C940F0185E00C940F01C5
:10026000CF93DF9380911C01835087FD8AC09091CA
:100270001901209118012D3209F081C0883009F050
:100280007EC0CCE0D0E0C91BD109C05EDE4F83EC5C
:1002900080930C018AE58093010110920B01888103
:1002A000807621F0CE010E94820060C08A81109287
:1002B00015019981911106C01092160125E131E0D6
:1002C00082E050C0953019F480931D013DC09630F6
:1002D000A9F59B81913019F48AE790E004C092302F
:1002E00041F488E690E090931B0180931A0182E12B
:1002F00021C09330F1F4811108C082EC90E090931A
:100300001B0180931A0184E015C0813041F488EA12
:1003100090E090931B0180931A018AE10BC0823018
:1003200041F48CE890E090931B0180931A018CE1DA
:1003300001C080E090E490930B0118C0983079F0F0
:10034000993031F480931F0125E131E080E00AC04B
:1003500081E09A3009F080E025E131E003C02FE12F
:1003600031E081E030931B0120931A019F819111AC
:1003700004C09E81981708F4892F80930001109281
:100380001C018091010184FF47C0809100018F3FD3
:1003900009F442C0C82F893008F0C8E08C1B809354
:1003A000000180910C0198E8892780930C01CC23EF
:1003B00031F120911A0130911B0180910B0186FFD0
:1003C0000BC0ADE0B1E0F9018C2F8A0F94919D93A1
:1003D00031968A13FBCF09C0D901EDE0F1E08C2FF3
:1003E0008E0F9D9191938E13FCCF8FEF8C0F90E029
:1003F0000196820F931F90931B0180931A016C2F1B
:100400008DE091E00E943502CC5FCC3019F08FEF87
:1004100080930001C093010184E199B1947131F49A
:100420008150D9F710921D0110921701DF91CF91E1
:100430000895E9E6F0E0808182608083E89A08957B
:10044000A82FB92F80E090E041E050EA609530E0BD
:1004500009C02D9182279795879510F084279527BD
:10046000305EC8F36F5FA8F30895EADF8D939D9324
:100470000895CF93CFB7CF93DF93C3954C9BE9F704
:100480004C9B0BC04C9B09C04C9B07C04C9B05C0B0
:100490004C9B03C04C9B01C089C06F93C091190154
:1004A000DD27C05EDE4F2F9365E54C9B03C02F9187
:1004B0006F91E6CF0F931F934F9320E040E15F933E
:1004C00009B1047104FB27F93F9350E03BE039C0C8
:1004D000147140642F77012F5F5F1EC0406819B10F
:1004E00014712F7752501FC0406409B12F770471E7
:1004F000D1F15F5F00C023C0406219B12F77147142
:1005000091F15F5F00C025C004711027515012F4B3
:100510005D5F0000115027952C3F19B1C8F614718A
:100520000127015027952C3FC8F64227499309B16E
:10053000047110274F73115027952C3FA8F646954C
:10054000469519B1147179F00127015027952C3F78
:1005500098F66B5A60F3315009B1B0F600C011E063
:100560001CBB002717C03B503195C31BD04011E086
:100570001CBB0881033CF9F00B34E9F02091170112
:100580001981110F1213EDCF093651F10D3211F00F
:10059000013E39F700931E013F915F914F911F91EA
:1005A0000F912F916F91CCB3C0FD67CFDF91CF91A9
:1005B000CFBFCF91189520911E01222369F310918E
:1005C0001C01112339F534303AF130931C0120938A
:1005D0001801109119013BE0311B309319011CC027
:1005E00000911C010130B4F40AE53091010134FDA1
:1005F00014C000930101CCE0D1E013C0052710E046
:1006000000C000000BB91AC0052710E0221F1DC052
:1006100010E021C04AE502C032ED432FC4E1D0E032
:1006200032E01AB114615C9A0BB11AB954E120E8B6
:1006300065E320FF05270BB9279517951C3FF0F6BA
:100640006695B8F7B1F720FF05270BB927951795E1
:100650001C3FD0F62795179517FF052700001C3F74
:100660000BB9B0F629913A9519F70B7E10911D013F
:10067000110FC651D0400BB911F01093170111E0C2
:100680001CBB00611AB11B7E402F4B7E54E05A9573
:10069000F1F70BB91AB94BB97FCF0E94E1000E9464
:1006A0001902549A2FEF85EA9EE021508040904035
:1006B000E1F700C00000549878940E943001FDCF0B
:0406C000F894FFCFDC
:0206C400FF5ADB
:00000001FF
